:100000000C942A000C943F000C943F000C943F0089
:100010000C943F000C943F000C943F000C943F0064
:100020000C943F000C943F000C943F000C943F0054
:100030000C943F000C943F000C943F000C943F0044
:100040000C943F000C943F000C943F000C943F0034
:100050000C943F0011241FBECFE5D8E0DEBFCDBF1A
:1000600010E0A0E6B0E0EEEAF4E002C005900D92E8
:10007000AA36B107D9F70E94F1010C9455020C94ED
:10008000000080EF8ABB8EEF87BB14BA11BA0895C7
:10009000863029F118F4853039F008958730D1F190
:1000A000883009F452C00895413059F42BB381E0EF
:1000B00090E002C0880F991F6A95E2F7822B8BBBF4
:1000C000089541115CC02BB381E090E002C0880F1D
:1000D000991F6A95E2F7809582238BBB0895413082
:1000E00059F428B381E090E002C0880F991F6A9507
:1000F000E2F7822B88BB0895411141C028B381E00B
:1001000090E002C0880F991F6A95E2F780958223DC
:1001100088BB0895413059F425B381E090E002C0D6
:10012000880F991F6A95E2F7822B85BB08954111CC
:1001300026C025B381E090E002C0880F991F6A9520
:10014000E2F78095822385BB0895413059F422B3AC
:1001500081E090E002C0880F991F6A95E2F7822B38
:1001600082BB089541110BC022B381E090E002C030
:10017000880F991F6A95E2F78095822382BB0895C4
:1001800088B340E064E00E94480088B340E065E046
:100190000E94480088B340E066E00E94480088B3AF
:1001A00040E067E00E94480085B341E063E00E94C0
:1001B000480085B341E064E00E94480085B341E017
:1001C00065E00E94480085B341E066E00E94480077
:1001D000089588B340E064E00E94480088B341E09D
:1001E00065E00E94480088B341E066E00E94480054
:1001F00088B341E067E00E9448009B9B5CC09C9BE9
:100200005CC09D9B5CC09E9B5CC088B341E064E089
:100210000E94480088B340E065E00E94480088B32F
:1002200041E066E00E94480088B341E067E00E9438
:1002300048009B9B48C09C9B48C09D9B48C09E9B80
:1002400048C088B341E064E00E94480088B341E0C0
:1002500065E00E94480088B340E066E00E944800E4
:1002600088B341E067E00E9448009B9B34C09C9BA0
:1002700034C09D9B34C09E9B34C088B341E064E091
:100280000E94480088B341E065E00E94480088B3BE
:1002900041E066E00E94480088B340E067E00E94C9
:1002A00048009B9B20C09C9B20C09D9B20C09E998A
:1002B00020C084E4089581E3089582E3089583E3F0
:1002C000089581E4089584E3089585E3089586E31D
:1002D000089582E4089587E3089588E3089589E303
:1002E000089583E408958AE2089580E3089583E2FF
:1002F000089580E2089598B39D7F98BB98B39B7F43
:1003000098BB982F907F9BBB98B3986098BBEFE900
:10031000FFE03197F1F700C0000098B3977F98BBDA
:100320008295807F8BBB88B3886088BB8FE99FE014
:100330000197F1F700C0000088B3877F88BB08955C
:1003400098B3926098BB98B39B7F98BB982F907F8F
:100350009BBB98B3986098BBEFE9FFE03197F1F74A
:1003600000C0000098B3977F98BB8295807F8BBBBD
:1003700088B3886088BB8FE99FE00197F1F700C0E0
:10038000000088B3877F88BB089588B3877F88BBC8
:1003900081E20E947B0180E20E947B018CE10E944D
:1003A0007B018EE00E947B0181E00E947B018FE354
:1003B0009FE10197F1F700C0000008950F931F938C
:1003C000CF938C01C0E003C00E94A001CF5FF80171
:1003D000EC0FF11D80818111F7CFCF911F910F910B
:1003E00008950E9441000E94C5010E94C00088B388
:1003F0008F7088BB85B3886785BB83B38837B9F3B3
:100400000E94E900833339F128F4813341F08233CB
:10041000A1F0EDCF843369F18533C9F1E8CF80E6EF
:1004200090E00E94DE012FEF85EA9EE0215080409F
:100430009040E1F700C00000DACF82E690E00E9431
:10044000DE012FEF85EA9EE0215080409040E1F7E9
:1004500000C00000CCCF84E690E00E94DE012FEFC8
:1004600085EA9EE0215080409040E1F700C0000006
:10047000BECF86E690E00E94DE012FEF85EA9EE087
:10048000215080409040E1F700C00000B0CF88E6E6
:1004900090E00E94DE012FEF85EA9EE0215080402F
:0E04A0009040E1F700C00000A2CFF894FFCF1B
:0A04AE003100320033003400350045
:00000001FF
