S01600004C43445F5374617475735F4C43442E7372656326
S11300000C942A000C943F000C943F000C943F0085
S11300100C943F000C943F000C943F000C943F0060
S11300200C943F000C943F000C943F000C943F0050
S11300300C943F000C943F000C943F000C943F0040
S11300400C943F000C943F000C943F000C943F0030
S11300500C943F0011241FBECFE5D8E0DEBFCDBF16
S113006010E0A0E6B0E0E8E7F3E002C005900D92EE
S1130070A037B107D9F70E9474010C94BA010C940B
S1130080000080EF8ABB8EE087BB84E884BB11BA92
S11300900895863029F118F4853039F008958730B1
S11300A0D1F1883009F452C00895413059F42BB38A
S11300B081E090E002C0880F991F6A95E2F7822BD5
S11300C08BBB089541115CC02BB381E090E002C06A
S11300D0880F991F6A95E2F7809582238BBB089558
S11300E0413059F428B381E090E002C0880F991F91
S11300F06A95E2F7822B88BB0895411141C028B369
S113010081E090E002C0880F991F6A95E2F780951C
S1130110822388BB0895413059F425B381E090E0EF
S113012002C0880F991F6A95E2F7822B85BB089558
S1130130411126C025B381E090E002C0880F991FC9
S11301406A95E2F78095822385BB0895413059F47E
S113015022B381E090E002C0880F991F6A95E2F70C
S1130160822B82BB089541110BC022B381E090E041
S113017002C0880F991F6A95E2F78095822382BB9B
S113018008958630A9F018F4853031F035C08730F1
S1130190D9F0883029F130C029B330E002C0359558
S11301A027956A95E2F781E020FD27C080E0089555
S11301B026B330E002C0359527956A95E2F781E0D1
S11301C020FD1BC080E0089523B330E002C03595C4
S11301D027956A95E2F781E020FD0FC080E008953D
S11301E020B330E002C0359527956A95E2F781E0A7
S11301F020FD03C080E0089580E0089598B39D7FBA
S113020098BB98B39B7F98BB982F907F9BBB98B368
S1130210986098BBEFE9FFE03197F1F700C0000068
S113022098B3977F98BB8295807F8BBB88B3886097
S113023088BB8FE99FE00197F1F700C0000088B305
S1130240877F88BB089598B3926098BB98B39B7FCF
S113025098BB982F907F9BBB98B3986098BBEFE9AD
S1130260FFE03197F1F700C0000098B3977F98BB87
S11302708295807F8BBB88B3886088BB8FE99FE0C1
S11302800197F1F700C0000088B3877F88BB089509
S113029088B3877F88BB81E20E94FE0080E20E94CF
S11302A0FE008CE10E94FE008EE00E94FE0081E0D0
S11302B00E94FE008FE39FE10197F1F700C0000068
S11302C008950F931F93CF938C01C0E003C00E9445
S11302D02301CF5FF801EC0FF11D80818111F7CF6D
S11302E0CF911F910F9108950E9441000E944801EF
S11302F041E062E087E00E94490062E087E00E94FA
S1130300C1008823A9F381E00E94FE008FE19EE4EE
S11303100197F1F700C0000067E087E00E94C10088
S1130320882389F080E690E00E94610185B38F778D
S113033085BB9FEF2BE782E9915020408040E1F795
S113034000C00000D5CF67E087E00E94C1008111A2
S1130350CFCF88E690E00E94610185B3806885BBB9
S11303609FEF2BE782E9915020408040E1F700C0E5
S10B03700000BECFF894FFCF9A
S11303784C4544206F6666004C4544206F6E00006F
S9030000FC
