:100000000C942A000C9434000C9434000C943400AA
:100010000C9434000C9434000C9434000C94340090
:100020000C9434000C9434000C9434000C94340080
:100030000C9434000C9434000C9434000C94340070
:100040000C9434000C9434000C9434000C94340060
:100050000C94340011241FBECFE5D8E0DEBFCDBF25
:100060000E94F1000C940B010C9400001ABA17BA0C
:1000700084E884BB11BA0895863029F118F48530DC
:1000800039F008958730D1F1883009F452C00895CD
:10009000413059F42BB381E090E002C0880F991FE2
:1000A0006A95E2F7822B8BBB089541115CC02BB39C
:1000B00081E090E002C0880F991F6A95E2F7809571
:1000C00082238BBB0895413059F428B381E090E03E
:1000D00002C0880F991F6A95E2F7822B88BB0895AA
:1000E000411141C028B381E090E002C0880F991F00
:1000F0006A95E2F78095822388BB0895413059F4D0
:1001000025B381E090E002C0880F991F6A95E2F75D
:10011000822B85BB0895411126C025B381E090E074
:1001200002C0880F991F6A95E2F78095822385BBEC
:100130000895413059F422B381E090E002C0880F65
:10014000991F6A95E2F7822B82BB089541110BC07B
:1001500022B381E090E002C0880F991F6A95E2F710
:100160008095822382BB08958630A9F018F48530EB
:1001700031F035C08730D9F0883029F130C029B34B
:1001800030E002C0359527956A95E2F781E020FDC1
:1001900027C080E0089526B330E002C0359527954A
:1001A0006A95E2F781E020FD1BC080E0089523B34B
:1001B00030E002C0359527956A95E2F781E020FD91
:1001C0000FC080E0089520B330E002C03595279538
:1001D0006A95E2F781E020FD03C080E0089580E0A9
:1001E00008950E94360041E062E087E00E943C00F2
:1001F00062E087E00E94B4008823A9F385B38058A9
:1002000085BB2FEF83ED90E3215080409040E1F7D4
:0A02100000C00000E8CFF894FFCF13
:00000001FF
