:100000000C942A000C943F000C943F000C943F0089
:100010000C943F000C943F000C943F000C943F0064
:100020000C943F000C943F000C943F000C943F0054
:100030000C943F000C943F000C943F000C943F0044
:100040000C943F000C943F000C943F000C943F0034
:100050000C943F0011241FBECFE5D8E0DEBFCDBF1A
:1000600010E0A0E6B0E0E2E9F1E002C005900D92F8
:10007000A636B107D9F70E94BE000C94C7000C94B5
:10008000000080EF8ABB8EE087BB14BA11BA0895D6
:1000900098B39D7F98BB98B39B7F98BB982F907F18
:1000A0009BBB98B3986098BBEFE9FFE03197F1F7FD
:1000B00000C0000098B3977F98BB8295807F8BBB70
:1000C00088B3886088BB8FE99FE00197F1F700C093
:1000D000000088B3877F88BB089598B3926098BB6F
:1000E00098B39B7F98BB982F907F9BBB98B39860E9
:1000F00098BBEFE9FFE03197F1F700C0000098B33B
:10010000977F98BB8295807F8BBB88B3886088BBC4
:100110008FE99FE00197F1F700C0000088B3877F67
:1001200088BB089588B3877F88BB81E20E9448001E
:1001300080E20E9448008CE10E9448008EE00E940C
:10014000480081E00E9448008FE39FE10197F1F7AA
:1001500000C0000008950F931F93CF938C01C0E05F
:1001600003C00E946D00CF5FF801EC0FF11D80818C
:100170008111F7CFCF911F910F9108950E944100F7
:100180000E94920080E690E00E94AB00FFCFF894BE
:02019000FFCF9F
:0601920048656C6C6F0073
:00000001FF
