S01500004B65795061645F4472697665722E7372656306
S11300000C942A000C9434000C9434000C943400A6
S11300100C9434000C9434000C9434000C9434008C
S11300200C9434000C9434000C9434000C9434007C
S11300300C9434000C9434000C9434000C9434006C
S11300400C9434000C9434000C9434000C9434005C
S11300500C94340011241FBECFE5D8E0DEBFCDBF21
S11300600E9471010C94B8010C9400001ABA80EF3C
S113007087BB84E884BB88E081BB0895863029F17E
S113008018F4853039F008958730D1F1883009F4B7
S113009052C00895413059F42BB381E090E002C07E
S11300A0880F991F6A95E2F7822B8BBB0895411143
S11300B05CC02BB381E090E002C0880F991F6A9561
S11300C0E2F7809582238BBB0895413059F428B31D
S11300D081E090E002C0880F991F6A95E2F7822BB5
S11300E088BB0895411141C028B381E090E002C06B
S11300F0880F991F6A95E2F78095822388BB08953B
S1130100413059F425B381E090E002C0880F991F73
S11301106A95E2F7822B85BB0895411126C025B369
S113012081E090E002C0880F991F6A95E2F78095FC
S1130130822385BB0895413059F422B381E090E0D5
S113014002C0880F991F6A95E2F7822B82BB08953B
S113015041110BC022B381E090E002C0880F991FC7
S11301606A95E2F78095822382BB089588B340E0C4
S113017064E00E943E0088B340E065E00E943E00D7
S113018088B340E066E00E943E0088B340E067E048
S11301900E943E0085B341E063E00E943E0085B3C7
S11301A041E064E00E943E0085B341E065E00E94C6
S11301B03E0085B341E066E00E943E00089588B3A6
S11301C040E064E00E943E0088B341E065E00E94A4
S11301D03E0088B341E066E00E943E0088B341E0FF
S11301E067E00E943E009B9B5CC09C9B5CC09D9B07
S11301F05CC09E9B5CC088B341E064E00E943E000A
S113020088B340E065E00E943E0088B341E066E0C8
S11302100E943E0088B341E067E00E943E009B9B41
S113022048C09C9B48C09D9B48C09E9B48C088B3C7
S113023041E064E00E943E0088B341E065E00E9432
S11302403E0088B340E066E00E943E0088B341E08F
S113025067E00E943E009B9B34C09C9B34C09D9BE6
S113026034C09E9B34C088B341E064E00E943E00E9
S113027088B341E065E00E943E0088B341E066E057
S11302800E943E0088B340E067E00E943E009B9BD2
S113029020C09C9B20C09D9B20C09E9920C084E4CC
S11302A0089581E3089582E3089583E3089581E442
S11302B0089584E3089585E3089586E3089582E428
S11302C0089587E3089588E3089589E3089583E40E
S11302D008958AE2089580E3089583E2089580E210
S11302E0089515BA0E9436000E94B60018BA85B364
S11302F0886785BB83B38837C9F30E94DF008133E5
S113030061F495B3906895BB2FEF35EA9EE02150D8
S113031030409040E1F700C00000823361F495B3AF
S11303209F7795BB2FEF35EA9EE0215030409040F7
S1130330E1F700C00000833361F495B3946095BB8A
S11303402FEF35EA9EE0215030409040E1F700C0A5
S11303500000813459F685B38B7F85BB2FEF35EAD6
S11303608EE0215030408040E1F700C00000BECF55
S1070370F894FFCF2B
S9030000FC
